:020000040800F2
:100000000080002041360008132200081522000855
:1000100017220008192200081B2200080000000017
:100020000000000000000000000000001D22000889
:100030001F220008000000002122000823220008DF
:1000400091360008913600082522000891360008F4
:100050009136000891360008913600089136000864
:100060009136000891360008913600089136000854
:1000700091360008913600089136000835220008B4
:100080009136000891360008913600089136000834
:100090009136000891360008913600089136000824
:1000A0009136000891360008913600089136000814
:1000B0009136000891360008913600089136000804
:1000C00091360008913600089136000891360008F4
:1000D0004522000891360008913600089136000844
:1000E0009136000891360008552200089136000824
:1000F00091360008913600089136000891360008C4
:1001000091360008913600086522000891360008F3
:1001100091360008913600089136000891360008A3
:100120009136000891360008913600089136000893
:08013000913600089136000829
:1001400010B5054C237833B9044B13B10448AFF311
:1001500000800123237010BD200200200000000059
:100160006411010808B5034B1BB103490348AFF301
:10017000008008BD00000000240200206411010876
:1001800010F8012B11F8013B012A28BF9A42F7D041
:10019000D01A7047000000000000000000000000BE
:1001A00001F0FF01102A2BDB10F0070F08D010F828
:1001B000013B013A8B422DD010F0070F42B3F6D12C
:1001C000F0B441EA012141EA014122F007047FF045
:1001D00000070023F0E80256083C85EA010586EA9C
:1001E000010685FA47F5A3FA87F586FA47F6A5FAD8
:1001F00087F68EB9EED1F0BC01F0FF0102F00702E4
:1002000032B110F8013B013A83EA010313B1F8D18E
:100210000020704701387047002D06BF354603386F
:10022000073815F0010F07D1013015F4807F02BFA8
:10023000013015F4C03F0130F0BC0138704700BFF9
:10024000034613F8012B002AFBD1181A0138704716
:1002500081F0004102E000BF83F0004330B54FEA77
:1002600041044FEA430594EA050F08BF90EA020FE4
:100270001FBF54EA000C55EA020C7FEA645C7FEA77
:10028000655C00F0E2804FEA5454D4EB5555B8BF9A
:100290006D420CDD2C4480EA020281EA030382EA0B
:1002A000000083EA010180EA020281EA0303362D9D
:1002B00088BF30BD11F0004F4FEA01314FF4801C70
:1002C0004CEA113102D0404261EB410113F0004F82
:1002D0004FEA03334CEA133302D0524263EB430339
:1002E00094EA050F00F0A780A4F10104D5F1200ED7
:1002F0000DDB02FA0EFC22FA05F2801841F1000132
:1003000003FA0EF2801843FA05F359410EE0A5F105
:1003100020050EF1200E012A03FA0EFC28BF4CF036
:10032000020C43FA05F3C01851EBE37101F00045EC
:1003300007D54FF0000EDCF1000C7EEB00006EEBF9
:100340000101B1F5801F1BD3B1F5001F0CD3490883
:100350005FEA30004FEA3C0C04F101044FEA4452DA
:1003600012F5800F80F09A80BCF1004F08BF5FEA61
:10037000500C50F1000041EB045141EA050130BD41
:100380005FEA4C0C404141EB0101013C28BFB1F553
:10039000801FE9D291F0000F04BF01460020B1FA9E
:1003A00081F308BF2033A3F10B03B3F120020CDA71
:1003B0000C3208DD02F1140CC2F10C0201FA0CF04F
:1003C00021FA02F10CE002F11402D8BFC2F1200CB4
:1003D00001FA02F120FA0CFCDCBF41EA0C0190406A
:1003E000E41AA2BF01EB0451294330BD6FEA0404B3
:1003F0001F3C1CDA0C340EDC04F11404C4F120029E
:1004000020FA04F001FA02F340EA030021FA04F3AF
:1004100045EA030130BDC4F10C04C4F1200220FA06
:1004200002F001FA04F340EA0300294630BD21FA44
:1004300004F0294630BD94F0000F83F4801306BF0A
:1004400081F480110134013D4EE77FEA645C18BFFE
:100450007FEA655C29D094EA050F08BF90EA020F95
:1004600005D054EA000C04BF1946104630BD91EA8D
:10047000030F1EBF0021002030BD5FEA545C05D190
:100480004000494128BF41F0004130BD14F58004CF
:100490003CBF01F5801130BD01F0004545F0FE4143
:1004A00041F470014FF0000030BD7FEA645C1ABF78
:1004B000194610467FEA655C1CBF0B46024650EAAF
:1004C000013406BF52EA033591EA030F41F40021DB
:1004D00030BD00BF90F0000F04BF0021704730B561
:1004E0004FF4806404F132044FF000054FF0000136
:1004F00050E700BF90F0000F04BF0021704730B5F7
:100500004FF4806404F1320410F0004548BF4042CB
:100510004FF000013EE700BF42004FEAE2014FEA20
:1005200031014FEA02701FBF12F07F4393F07F4FFB
:1005300081F06051704732F07F4208BF704793F0FE
:100540007F4F04BF41F40021704730B54FF4607411
:1005500001F0004521F000411CE700BF50EA010214
:1005600008BF704730B54FF000050AE050EA0102BD
:1005700008BF704730B511F0004502D5404261EB2D
:1005800041014FF4806404F132045FEA915C3FF46E
:10059000D8AE4FF003025FEADC0C18BF03325FEA0B
:1005A000DC0C18BF033202EBDC02C2F1200300FABC
:1005B00003FC20FA02F001FA03FE40EA0E0021FAE1
:1005C00002F11444BDE600BF70B54FF0FF0C4CF4CF
:1005D000E06C1CEA11541DBF1CEA135594EA0C0F81
:1005E00095EA0C0F00F0DEF82C4481EA030621EABC
:1005F0004C5123EA4C5350EA013518BF52EA0335F7
:1006000041F4801143F4801338D0A0FB02CE4FF0A8
:100610000005E1FB02E506F00042E0FB03E54FF0D8
:100620000006E1FB03569CF0000F18BF4EF0010ED0
:10063000A4F1FF04B6F5007F64F5407404D25FEACC
:100640004E0E6D4146EB060642EAC62141EA55517F
:100650004FEAC52040EA5E504FEACE2EB4F1FD0CC1
:1006600088BFBCF5E06F1ED8BEF1004F08BF5FEA3F
:10067000500E50F1000041EB045170BD06F00046F1
:1006800046EA010140EA020081EA0301B4EB5C049E
:10069000C2BFD4EB0C0541EA045170BD41F4801196
:1006A0004FF0000E013C00F3AB8014F1360FDEBFBB
:1006B000002001F0004170BDC4F10004203C35DA97
:1006C0000C341BDC04F11404C4F1200500FA05F31A
:1006D00020FA04F001FA05F240EA020001F00042BB
:1006E00021F0004110EBD37021FA04F642EB060131
:1006F0005EEA430E08BF20EAD37070BDC4F10C045B
:10070000C4F1200500FA04F320FA05F001FA04F21E
:1007100040EA020001F0004110EBD37041F100010A
:100720005EEA430E08BF20EAD37070BDC4F1200515
:1007300000FA05F24EEA020E20FA04F301FA05F27D
:1007400043EA020321FA04F001F0004121FA04F225
:1007500020EA020000EBD3705EEA430E08BF20EAF5
:10076000D37070BD94F0000F0FD101F0004640002F
:1007700041EB010111F4801F08BF013CF7D041EAB1
:10078000060195F0000F18BF704703F000465200B5
:1007900043EB030313F4801F08BF013DF7D043EA86
:1007A0000603704794EA0C0F0CEA135518BF95EA3C
:1007B0000C0F0CD050EA410618BF52EA4306D1D1C3
:1007C00081EA030101F000414FF0000070BD50EAE2
:1007D000410606BF1046194652EA430619D094EA6C
:1007E0000C0F02D150EA013613D195EA0C0F05D156
:1007F00052EA03361CBF104619460AD181EA0301AA
:1008000001F0004141F0FE4141F470014FF0000061
:1008100070BD41F0FE4141F4780170BD70B54FF0FC
:10082000FF0C4CF4E06C1CEA11541DBF1CEA13557C
:1008300094EA0C0F95EA0C0F00F0A7F8A4EB05045E
:1008400081EA030E52EA03354FEA013100F0888055
:100850004FEA03334FF0805545EA131343EA12631E
:100860004FEA022245EA111545EA10654FEA0026D3
:100870000EF000419D4208BF964244F1FD0404F58C
:10088000407402D25B084FEA3202B61A65EB0305E8
:100890005B084FEA32024FF480104FF4002CB6EBA5
:1008A000020E75EB030E22BFB61A754640EA0C0025
:1008B0005B084FEA3202B6EB020E75EB030E22BF65
:1008C000B61A754640EA5C005B084FEA3202B6EBA6
:1008D000020E75EB030E22BFB61A754640EA9C0065
:1008E0005B084FEA3202B6EB020E75EB030E22BF35
:1008F000B61A754640EADC0055EA060E18D04FEAF3
:10090000051545EA16754FEA06164FEAC30343EA92
:1009100052734FEAC2025FEA1C1CC0D111F4801F5F
:100920000BD141EA00014FF000004FF0004CB6E758
:1009300011F4801F04BF01430020B4F1FD0C88BFF7
:10094000BCF5E06F3FF6AFAEB5EB030C04BFB6EB02
:10095000020C5FEA500C50F1000041EB045170BDF5
:100960000EF0004E4EEA113114EB5C04C2BFD4EB22
:100970000C0541EA045170BD41F480114FF0000EA6
:10098000013C90E645EA060E8DE60CEA135594EA22
:100990000C0F08BF95EA0C0F3FF43BAF94EA0C0F25
:1009A0000AD150EA01347FF434AF95EA0C0F7FF49A
:1009B00025AF104619462CE795EA0C0F06D152EAEE
:1009C00003353FF4FDAE1046194622E750EA4106D2
:1009D00018BF52EA43067FF4C5AE50EA41047FF4E3
:1009E0000DAF52EA43057FF4EBAE12E74FF0FF3C48
:1009F00006E000BF4FF0010C02E000BF4FF0010C19
:100A00004DF804CD4FEA410C7FEA6C5C4FEA430C91
:100A100018BF7FEA6C5C1BD001B050EA410C0CBFE0
:100A200052EA430C91EA030F02BF90EA020F002042
:100A3000704710F1000F91EA030F58BF994208BFA9
:100A400090422CBFD8176FEAE37040F00100704766
:100A50004FEA410C7FEA6C5C02D150EA013C07D1BD
:100A60004FEA430C7FEA6C5CD6D152EA033CD3D008
:100A70005DF8040B704700BF8446104662468C4602
:100A80001946634600E000BF01B5FFF7B7FF002835
:100A900048BF10F1000F01BD4DF808EDFFF7F4FF5E
:100AA0000CBF012000205DF808FB00BF4DF808EDE9
:100AB000FFF7EAFF34BF012000205DF808FB00BF0C
:100AC0004DF808EDFFF7E0FF94BF012000205DF82E
:100AD00008FB00BF4DF808EDFFF7CEFF94BF0120E3
:100AE00000205DF808FB00BF4DF808EDFFF7C4FFDC
:100AF00034BF012000205DF808FB00BF4FEA410C25
:100B00007FEA6C5C02D150EA013C0AD14FEA430C07
:100B10007FEA6C5C02D152EA033C02D14FF0000044
:100B200070474FF0010070474FEA410212F5001282
:100B300015D211D56FF47873B3EB625212D94FEA24
:100B4000C12343F0004343EA505311F0004F23FA0E
:100B500002F018BF404270474FF00000704750EA63
:100B6000013005D111F0004008BF6FF00040704720
:100B70004FF00000704700BF4A0011D212F500127A
:100B800011D20DD56FF47873B3EB62520ED44FEAE5
:100B9000C12343F0004343EA505323FA02F0704765
:100BA0004FF00000704750EA013002D14FF0FF30A3
:100BB00070474FF00000704780F0004002E000BF37
:100BC00081F0004142001FBF5FEA410392EA030F38
:100BD0007FEA226C7FEA236C6AD04FEA1262D2EB82
:100BE0001363C1BFD218414048404140B8BF5B4287
:100BF000192B88BF704710F0004F40F4000020F020
:100C00007F4018BF404211F0004F41F4000121F035
:100C10007F4118BF494292EA030F3FD0A2F101027F
:100C200041FA03FC10EB0C00C3F1200301FA03F1BD
:100C300000F0004302D5494260EB4000B0F5000FE0
:100C400013D3B0F1807F06D340084FEA310102F19F
:100C50000102FE2A51D2B1F1004F40EBC25008BF51
:100C600020F0010040EA03007047490040EB00001B
:100C7000013A28BFB0F5000FEDD2B0FA80FCACF11C
:100C8000080CB2EB0C0200FA0CF0AABF00EBC25049
:100C900052421843BCBFD0401843704792F0000F37
:100CA00081F4000106BF80F400000132013BB5E78A
:100CB0004FEA41037FEA226C18BF7FEA236C21D000
:100CC00092EA030F04D092F0000F08BF0846704765
:100CD00090EA010F1CBF0020704712F07F4F04D133
:100CE000400028BF40F00040704712F100723CBF46
:100CF00000F50000704700F0004343F0FE4040F470
:100D0000000070477FEA226216BF08467FEA23632D
:100D10000146420206BF5FEA412390EA010F40F418
:100D2000800070474FF0000304E000BF10F0004364
:100D300048BF40425FEA000C08BF704743F096434B
:100D400001464FF000001CE050EA010208BF704766
:100D50004FF000030AE000BF50EA010208BF7047ED
:100D600011F0004302D5404261EB41015FEA010C02
:100D700002BF84460146002043F0B64308BFA3F1FA
:100D80008053A3F50003BCFA8CF2083AA3EBC253DC
:100D900010DB01FA02FC634400FA02FCC2F12002FB
:100DA000BCF1004F20FA02F243EB020008BF20F032
:100DB0000100704702F1200201FA02FCC2F1200298
:100DC00050EA4C0021FA02F243EB020008BF20EA8D
:100DD000DC7070474FF0FF0C1CEAD0521EBF1CEABB
:100DE000D15392EA0C0F93EA0C0F6FD01A4480EAA9
:100DF000010C400218BF5FEA41211ED04FF0006392
:100E000043EA501043EA5111A0FB01310CF00040BD
:100E1000B1F5000F3EBF490041EAD3715B0040EAE3
:100E2000010062F17F02FD2A1DD8B3F1004F40EBB3
:100E3000C25008BF20F00100704790F0000F0CF086
:100E4000004C08BF49024CEA502040EA51207F3A4A
:100E5000C2BFD2F1FF0340EAC250704740F4000025
:100E60004FF00003013A5DDC12F1190FDCBF00F016
:100E700000407047C2F10002410021FA02F1C2F1C4
:100E8000200200FA02FC5FEA310040F1000053EA60
:100E90004C0308BF20EADC70704792F0000F00F0AE
:100EA000004C02BF400010F4000F013AF9D040EAB4
:100EB0000C0093F0000F01F0004C02BF490011F448
:100EC000000F013BF9D041EA0C018FE70CEAD15346
:100ED00092EA0C0F18BF93EA0C0F0AD030F0004CC6
:100EE00018BF31F0004CD8D180EA010000F000407A
:100EF000704790F0000F17BF90F0004F084691F038
:100F0000000F91F0004F14D092EA0C0F01D1420271
:100F10000FD193EA0C0F03D14B0218BF084608D13A
:100F200080EA010000F0004040F0FE4040F4000084
:100F3000704740F0FE4040F4400070474FF0FF0C17
:100F40001CEAD0521EBF1CEAD15392EA0C0F93EA5E
:100F50000C0F69D0A2EB030280EA010C49024FEAB0
:100F6000402037D04FF0805343EA111143EA101369
:100F70000CF000408B4238BF5B0042F17D024FF421
:100F8000000C8B4224BF5B1A40EA0C00B3EB510FFC
:100F900024BFA3EB510340EA5C00B3EB910F24BFE5
:100FA000A3EB910340EA9C00B3EBD10F24BFA3EB6A
:100FB000D10340EADC001B0118BF5FEA1C1CE0D132
:100FC000FD2A3FF650AF8B4240EBC25008BF20F0E5
:100FD000010070470CF0004C4CEA50207F32C2BF39
:100FE000D2F1FF0340EAC250704740F400004FF0D6
:100FF0000003013A37E792F0000F00F0004C02BF07
:10100000400010F4000F013AF9D040EA0C0093F0D0
:10101000000F01F0004C02BF490011F4000F013B2A
:10102000F9D041EA0C0195E70CEAD15392EA0C0F92
:1010300008D142027FF47DAF93EA0C0F7FF470AFCA
:10104000084676E793EA0C0F04D14B023FF44CAF0D
:1010500008466EE730F0004C18BF31F0004CCAD1A2
:1010600030F000427FF45CAF31F000437FF43CAFDE
:101070005FE700BF4FF0FF3C06E000BF4FF0010C00
:1010800002E000BF4FF0010C4DF804CD4FEA4002E2
:101090004FEA41037FEA226C18BF7FEA236C11D02C
:1010A00001B052EA530C18BF90EA010F58BFB2EBDF
:1010B000030088BFC81738BF6FEAE17018BF40F05F
:1010C000010070477FEA226C02D15FEA402C05D113
:1010D0007FEA236CE4D15FEA412CE1D05DF8040B98
:1010E000704700BF844608466146FFE70FB5FFF72B
:1010F000C9FF002848BF10F1000F0FBD4DF808EDE3
:10110000FFF7F4FF0CBF012000205DF808FB00BFD3
:101110004DF808EDFFF7EAFF34BF012000205DF82D
:1011200008FB00BF4DF808EDFFF7E0FF94BF01207A
:1011300000205DF808FB00BF4DF808EDFFF7D2FF77
:1011400094BF012000205DF808FB00BF4DF808EDBA
:10115000FFF7C8FF34BF012000205DF808FB00BF87
:101160007BB972B90029BEBF00204FF0004106E0F4
:1011700008BF00281CBF6FF000414FF0FF3000F0A7
:10118000D3B9ADF1080C6DE904CE002909DB002BC1
:101190001ADB00F04DF8DDF804E0DDE9022304B0CD
:1011A0007047404261EB4101002B1BDB00F040F82F
:1011B000DDF804E0DDE9022304B0404261EB4101C7
:1011C000524263EB43037047524263EB430300F028
:1011D0002FF8DDF804E0DDE9022304B0404261EBC2
:1011E00041017047524263EB430300F021F8DDF800
:1011F00004E0DDE9022304B0524263EB430370478D
:1012000053B94AB9002908BF00281CBF4FF0FF316D
:101210004FF0FF3000F088B9ADF1080C6DE904CE55
:1012200000F006F8DDF804E0DDE9022304B07047C1
:101230002DE9F047089D8E4604468846002B4AD18A
:101240008A42174662D9B2FA82F64EB1C6F120033D
:1012500001FA06F820FA03F3B74043EA0808B4405D
:101260004FEA174E1FFA87FCB8FBFEF1230C0EFB6A
:10127000118843EA084301FB0CF29A4209D9FB1892
:1012800001F1FF3080F0EA809A4240F2E7800239B3
:101290003B449A1AA3B2B2FBFEF00EFB102243EAC3
:1012A000024300FB0CFC9C4509D9FB1800F1FF32FE
:1012B00080F0D6809C4540F2D3803B44023840EA1F
:1012C0000140A3EB0C0300211DB1F3400022C5E94E
:1012D0000032BDE8F0878B4205D90DB1C5E90001A8
:1012E00000210846F5E7B3FA83F1002946D173459A
:1012F00002D3824200F20581841A6EEB03020120C0
:101300009046002DE5D0C5E90048E2E7002A00F04C
:101310009080B2FA82F6002E40F0A4808A1A030C64
:101320004FEA174E80B2BCB20121B2FBFEFC0EFBAD
:101330001C2243EA024304FB0CF29A4207D9FB1831
:101340000CF1FF3802D29A4200F2E080C4469B1AA8
:10135000B3FBFEF20EFB123340EA034302FB04F43C
:101360009C4207D9FB1802F1FF3002D29C4200F2E6
:10137000CA8002461B1B42EA0C40A5E7C1F12006C9
:101380008B4022FA06F71F430EFA01F420FA06F307
:101390002EFA06FE4FEA1749234300FA01F81FFA16
:1013A00087FCBEFBF9F01C0C09FB10EE44EA0E446E
:1013B00000FB0CFEA64502FA01F209D93C1900F126
:1013C000FF3A80F09C80A64540F2998002383C4468
:1013D000A4EB0E041FFA83FEB4FBF9F309FB1344DC
:1013E0004EEA044403FB0CFCA44508D93C1903F164
:1013F000FF3E80F08280A4457FD9023B3C4443EA13
:101400000040A4EB0C04A0FB02EC64457346E146EB
:1014100062D35FD05DB1B8EB030264EB090404FA58
:1014200006F622FA01F31E43CC40C5E90064002110
:101430004FE7B1FBF2FC010C41EA0E4180B240EAF9
:1014400001423B4638463C46B846BE462026B1FBE4
:10145000F7F1A2EB080241EA0C4166E7014618E702
:1014600010462CE7C6F120022EFA02F3B740B14035
:1014700020FA02F24FEA174E0A43B3FBFEF8BCB261
:101480000EFB1833110C41EA034108FB04F9B0408C
:1014900089454FEA104380B23ED9791808F1FF3CE4
:1014A00001D289451FD8A1EB0901B1FBFEF909FB67
:1014B00004F80EFB191192B242EA0142424529D2C8
:1014C000BA1809F1FF31C4D24245C2D2A9F10201D2
:1014D0003A44BEE7F0459DD2BEEB02036CEB070C2D
:1014E0000138E14696E7A7EB09094944A8F1020C47
:1014F000B1FBFEF909FB04F8DBE773467FE75046D2
:1015000066E70846FDE63B44023A33E7ACF1020CDD
:101510003B441CE749469CE7A1EB0901C446B1FBEB
:10152000FEF909FB04F8C4E7704700BF08B513488B
:10153000134B03604FF00043436000238360C3609C
:101540000361042242610376437683760122C261FD
:1015500080F820304362836280F82C304FF4805250
:10156000026307224263826380F83C30C36403F065
:1015700051FE00B908BD00F00FFDFBE73C02002062
:101580000024014000B589B0002303930493059320
:10159000069307930268114B9A4202D009B05DF896
:1015A00004FB4FF0B0431A6E42F400721A661A6ED2
:1015B00002F400720292029ADA6C42F00202DA64D9
:1015C000DB6C03F002030193019B082303930323C5
:1015D000049303A9024804F009FFDFE70024014057
:1015E0000004004808B50268074B9A4200D008BDC5
:1015F0004FF0B042136E23F40073136608210348C2
:1016000004F0C6FFF3E700BF0024014000040048D7
:1016100030B585B004460023019302930393FFF78E
:1016200085FF164804F02EFAF8B9019400230293BE
:10163000039301A9114803F067FFC8B90F4804F0EC
:1016400025F9C0B90D4C4FF0FF31204603F0FAFEEA
:10165000204604F0F7F9204603F053FF05462046E4
:1016600004F090F9284605B030BD00F095FCDCE7A9
:1016700000F092FCE2E700F08FFCE3E73C02002080
:1016800008B50D48FFF7C4FFA0B103460B4AB2F8F6
:10169000AA004FF6FF72904207D040F6E44202FBE8
:1016A00000F0B0FBF3F080B205E00548B0FBF3F0CA
:1016B00080B200E0002008BD002000B40075FF1FCC
:1016C000D8084C0008B50248FFF7A2FF80B208BD59
:1016D0000400000810B582B0002212E0930011F857
:1016E000224000F822405C1C11F804C000F804C03D
:1016F0009C1C11F804C000F804C00333CC5CC45433
:101700000132032AEAD9042324E099001A1F10F8B1
:1017100022C09DF804408CEA040C00F823C000EBC2
:10172000820292F801C09DF805E04C1C8CEA0E0C78
:1017300000F804C092F802C09DF806E08C1C8CEA08
:101740000E0C00F804C0D2789DF8074003316240C7
:10175000425401332B2B33D85A1E10F822108DF827
:10176000041000EB820292F801E08DF805E092F897
:1017700002C08DF806C0D2788DF8072013F0030F51
:10178000C3D18DF804E08DF805C08DF806208DF8E2
:1017900007100C4C14F80EE08DF804E014F80CC09F
:1017A0008DF805C0A25C8DF80620625C8DF80720DC
:1017B0009A0805498A5C8EEA020E8DF804E0A4E7D7
:1017C00002B010BD181401080C13010830B5002434
:1017D00013E001EB840515F803C004EB800E03EB66
:1017E0008E0E12F80EE08CEA0E0C05F803C00133E1
:1017F000DBB2032BEDD90134E4B2032C01D8002372
:10180000F7E730BD0022032A1BD80023032B15D88D
:1018100010B400EB830111F802C00A4C14F80CC09C
:1018200001F802C00133DBB2032BF2D90132D2B28C
:10183000032A01D80023F7E710BC70470132D2B267
:10184000E1E7704718140108437842794270427A00
:101850004271427B427243738378827A82708372D0
:101860008379827B82718373C378C27BC270C27AB0
:10187000C273C279C272C3717047C30903EB4303D9
:1018800003EBC30383EA4000C0B270472DE9F84F71
:101890008146002531E019F825A009EB850696F868
:1018A00001B08BEA0A0096F80280F77880EA080413
:1018B0007C40FFF7E2FF60408AEA000009F825005B
:1018C0008BEA0800FFF7D9FF60408BEA000B86F82F
:1018D00001B088EA0700FFF7D0FF604088EA0008FF
:1018E00086F8028087EA0A00FFF7C7FF84EA000350
:1018F00087EA0304F4700135EDB2032DCBD9BDE8BE
:10190000F88F2DE9F04F8BB000900024A0E0009BF1
:1019100013F824B003EB840898F801A098F802901B
:1019200098F803505846FFF7A8FF0790FFF7A5FF68
:101930000190FFF7A2FF08905046FFF79EFF02902C
:10194000FFF79BFF0390FFF798FF07464846FFF716
:1019500094FF0990FFF791FF0490FFF78EFF064672
:101960002846FFF78AFF0590FFF787FF0690FFF7ED
:1019700084FFDDF81CE0019A8EEA0203DBB20899CD
:101980004B40DBB2DDF808C08CEA0A02D2B27A40E2
:10199000D2B25340049A82EA0902D2B27240D2B261
:1019A000534080EA0502D2B25340DDF800C00CF883
:1019B000243081EA0B03DAB2DDF808C0039B8CEA1D
:1019C0000303DBB27B40DBB25340DDF824C08CEA7A
:1019D0000902D2B27240D2B25340069A6A40D2B2E1
:1019E0004240D2B2534088F80130019B83EA0B0396
:1019F000DBB24B40DBB287EA0A02D2B25340049A10
:101A00008CEA0202D2B27240D2B25340059A5540DB
:101A1000EDB24540EDB26B4088F802308EEA0B0320
:101A2000DBB24B40DBB2039981EA0A02D2B25740E3
:101A3000FFB27B4086EA0906F6B273400599069A22
:101A40004A40D2B25040C0B2434088F8033001341B
:101A5000032C7FF75CAF0BB0BDE8F08F0022032AA8
:101A60001BD80023032B15D810B400EB830111F809
:101A700002C00A4C14F80CC001F802C00133DBB2FA
:101A8000032BF2D90132D2B2032A01D80023F7E79F
:101A900010BC70470132D2B2E1E770471813010859
:101AA000437B427A42734279427242784271437078
:101AB0008378827A827083728379827B8271837366
:101AC000C378C279C270C27AC271C27BC272C37358
:101AD000704770B505460E460A4601460020FFF7DE
:101AE00075FE012409E02846FFF7D0FE324629465C
:101AF0002046FFF76BFE0134E4B22846FFF782FE72
:101B00002846FFF7A1FE0A2CEDD1324629460A20CD
:101B1000FFF75CFE70BD70B505460E460A460146ED
:101B20000A20FFF753FE092404E02846FFF7E9FEE8
:101B3000013CE4B22846FFF7B3FF2846FFF78EFFCB
:101B4000324629462046FFF741FE002CEDD170BDFC
:101B500008B5FFF7BFFD08BD08B50B46014618469E
:101B6000FFF7B7FF08BD08B50B4601461846FFF75B
:101B7000D2FF08BD0346A0F12B02122A11D8DFE8DC
:101B800002F00A1010101C0E0E0E0E0E0E0E0E0E8F
:101B90000E1010100C003E2070474020704704309B
:101BA00070474138192804D9A3F16102192A01D9D3
:101BB00000207047A3F1470070473F2070470000A6
:101BC00070B584B0044600200346844602E00CF160
:101BD000010C73468C4534D203F1010E14F80C60ED
:101BE00004AD05EB830545F80C6C022BEFD1019B8E
:101BF000C3F38506284DAE5D16544FEA031E0EF062
:101C0000300E029BC3F303164EEA060E461C15F86F
:101C10000EE002F806E09B0003F03C03039EC6F3CF
:101C2000811E43EA0E0300F1020EEB5C02F80E3057
:101C300006F03F06C31CAD5DD55404304FF0000ED6
:101C4000C5E7D3B1012B1CD00199C1F38504124E15
:101C5000345D1454090101F03001029DC5F30314F1
:101C60002143441C765C1655022B0DD0831C3D216C
:101C7000D154C31C3D21D15404300023135404B06B
:101C800070BD00210291DFE7AD0005F03C05831C2B
:101C90000149495DD154ECE7000000202DE9F047EF
:101CA00084B081468846924600273C463D4609E07E
:101CB0009B01DBB2B91C13440AF80130033700263C
:101CC00001353446454528D2661C19F80500FFF752
:101CD00051FF04AB03EB840444F8100C042EEFD145
:101CE000009B9B00DBB2019AC2F301110B430AF87F
:101CF0000730029B402B0DD01201D2B2C3F38300F8
:101D0000791C02440AF80120039A402AD0D10237F4
:101D10000026D5E701370026D2E7384604B0BDE8F3
:101D2000F087000008B50848084B036000230371E2
:101D30004371436183610123036204F02FF800B90A
:101D400008BD00F029F9FBE7A002002000300240A6
:101D50000268094B9A4200D0704782B04FF0B043FE
:101D60009A6C42F480529A649B6C03F48053019302
:101D7000019B02B0704700BF0030024000B583B045
:101D80004FF0B0439A6C42F004029A649A6C02F0ED
:101D900004020192019A9A6C42F001029A649B6CCF
:101DA00003F001030093009B002202210F2003F0A7
:101DB0006FFF0F2003F07CFF03B05DF804FB000011
:101DC00070B588B000240394049405940694079495
:101DD0004FF0B043DA6C42F00102DA64DA6C02F0E0
:101DE00001020292029ADA6C42F00202DA64DA6CC0
:101DF00002F002020192019ADA6C42F00402DA6403
:101E0000DB6C03F004030093009B1B4D224643F25E
:101E10002001284604F03AFC012240F201214FF053
:101E2000904004F033FC01224FF48061284604F016
:101E30002DFC4FF4846303930126049605940694C5
:101E400003A9284604F0D2FA40F201230393049632
:101E50000594069403A94FF0904004F0C7FA4FF49C
:101E600040530393049605940323069303A928463D
:101E700004F0BCFA08B070BD0004004808B5124870
:101E8000124B0360124B4360002383600122C26047
:101E9000036143618361C361036204F021FE50B9B1
:101EA0000021094805F0BCF940B90021064805F0B9
:101EB000E5F930B908BD00F06FF8F1E700F06CF813
:101EC000F3E700F069F8F5E7C4020020005800408D
:101ED000885D80102DE9F04397B0044600211191F0
:101EE0001291139114911591382203A80DF0FCF86A
:101EF0002268274B9A4202D017B0BDE8F0838023B6
:101F000003934FF44023099303A806F013F8002825
:101F10003BD14FF0B044E36C43F00103E364E36C66
:101F200003F001030293029BE36C43F00203E364BA
:101F3000E36C03F002030193019B4FF40049CDF8D9
:101F400044904FF01208CDF84880012713970326DC
:101F500014960425159511A94FF0904004F046FA07
:101F6000CDF84490CDF8488013971496159511A993
:101F7000084804F03BFAA36D43F48003A365A36D06
:101F800003F480030093009BB6E700F005F8C0E778
:101F9000005800400004004872B6FEE710B59AB041
:101FA0004822002108A80DF09FF800240194029413
:101FB0000394049405940694079405F08BF94FF06C
:101FC000B042D2F8903023F01803C2F8903002F5F6
:101FD0008062136823F4C06343F4007313601368D2
:101FE00003F4C0630093009B2423089381230B9385
:101FF000012310931194B0231293139408A805F0B1
:1020000003FB70B94F2301930023029303930493BE
:1020100005930793022101A805F028FE18B91AB00C
:1020200010BDFFF7B9FFFFF7B7FF000010B58CB088
:102030002422002103A80DF057F82C230493112328
:1020400005930B230693062307937D23089303F040
:10205000A5F8FFF7A3FFFFF7B3FE00F0EDF901F0DD
:1020600018FBFFF763FAFFF709FFFFF75BFE0BF0C2
:1020700061F900F077FC03A80AF0C2FD019000248A
:10208000ADF8084001AB93E803000AF075FD0120AC
:10209000054B1870054B05221A7021460AF0D6FB35
:1020A00001F0FDFAFCE700BF180300204200002009
:1020B00000B58DB02C22002101A80DF015F82248A2
:1020C000224B03601F23836000230361436183610C
:1020D0004FF08042C26103624FF48073436206F0A6
:1020E0000FF920BB184806F04FFA18BB00220892DF
:1020F000029206924FF0005307934FF480730B93B4
:1021000001A9114806F064F9B8B9002208920292B8
:1021100006924FF0005307934FF480730B9301A97D
:10212000094806F055F958B90DB05DF804FBFFF702
:1021300033FFD7E7FFF730FFD8E7FFF72DFFE4E7DE
:10214000FFF72AFFF0E700BF1C0300200028004033
:1021500010B590B004463822002102A80CF0C4FF4C
:1021600022681A4B9A4201D010B010BD4FF4803350
:1021700002934FF480730F9302A805F0DBFE08BBB7
:102180004FF0B043D3F8902042F40042C3F89020BF
:102190009A6D42F480629A659B6D03F480630193AB
:1021A000019B00221146022003F072FD022003F081
:1021B0007FFD002211462A2003F06AFD2A2003F049
:1021C00077FDD1E7FFF7E8FEDAE700BF002800401F
:1021D0007047704708B502F0F7FF0120024BC3F8C3
:1021E000880005F0DBF808BD0004005808B502F0CF
:1021F000F2FF08BD08B502F0EEFF01F0E1F908BDFD
:1022000008B502F0E1FF0121002005F06BF808BDE0
:102210007047FEE7FEE7FEE7FEE7FEE77047704720
:102220007047704708B5024806F0DAF908BD00BFEC
:102230001C03002008B5024804F050F808BD00BF98
:102240001406002008B5024806F090FE08BD00BF45
:102250007406002008B5024805F0CCFF08BD00BF99
:102260001C03002008B5024806F072FC08BD00BF40
:102270005403002008B505480823036006F0E6F97A
:1022800000B908BDFFF788FEFBE700BF540300203C
:1022900000B583B04FF0B0435A6E42F001025A6667
:1022A0005B6E03F001030193019B00221146322073
:1022B00003F0EEFC322003F0FBFC03B05DF804FBFE
:1022C0000CB400B583B004AB53F8042B01930AF0AF
:1022D00057FF03B05DF804EB02B0704730B585B02E
:1022E00004460D4602A80AF069FCBDF90C300093C3
:1022F000029B054A10212046FFF7E2FF2046FDF72A
:102300009FFF288005B030BD3015010810B584B09E
:102310004FF0FF3402940193009201230A4600FA21
:1023200003F1034804F0A4FE40B204B010BD00BFA6
:10233000C402002010B584B04FF0FF340294019322
:10234000009201230A4600FA03F1034804F0BCFDA1
:1023500040B204B010BD00BFC402002008B5074B56
:1023600005221A70002101200AF070FA044B0122A4
:10237000002110460AF040F908BD00BF42000020CD
:102380003C15010810B54FF0B042936823F40043A8
:1023900093600AF0EDFC0124094B1C7000F008FE6C
:1023A0000AF0B6F807480AF0CDF802200AF0D0F893
:1023B0000AF0DEF9214620460AF0FAF910BD00BF06
:1023C00004060020DD22000808B50AF007FA08BD5F
:1023D00010B582B0FFF754F940F6B83398420DD8E3
:1023E000B0F5E16F15D3A0F5E160C0EBC01044007B
:1023F000094BA3FB0434C4F3C71400E0FE2400948B
:10240000064B0122002102200AF0F6F8204602B015
:1024100010BD0024F3E700BFB5814E1B6015010815
:1024200008B5012102200AF0ADF908BD08B5002168
:1024300002200AF0A7F908BD2DE9F84F5F4F604C64
:102440003D460FCD0FC495E8070084E807005D4CBA
:1024500007F11C050FCD0FC495E8070084E80700BD
:10246000594C07F138050FCD0FC495E8070084E8F3
:102470000700564C07F154050FCD0FC42B6823609D
:10248000534E4422002130460CF02EFE331D07F13E
:10249000680207CA83E8070000243482B4744D4BF5
:1024A000B3614D4BF361DFF83491C6F820904FF0E3
:1024B000834373624FF00208C6F83C804FF0010B73
:1024C000A6F840B0464D4422214628460CF00CFEAA
:1024D0002B1D07F1780207CA03C31A70C5F80D4017
:1024E000A5F811403F4BAB61C5F81C903E4B2B62E9
:1024F0003E4B6B62C5F83C80A5F840B0DFF8F0A019
:102500004422214650460CF0EFFD3A4BCAF8043005
:10251000CAF80840CAF80C40CAF80F40364BCAF84F
:102520001830CAF83CB0AAF840B0DFF8D080442296
:10253000214640460CF0D8FD07F1880393E80300DC
:10254000C8F8040008F1080323F8021B090C1970ED
:10255000C8F80B40C8F80F40294BC8F81830294B71
:10256000C8F81C30C8F83CB0A8F840B0DFF8989024
:102570004422214648460CF0B7FD09F10403983780
:1025800097E8030083E80300C9F80C40C9F80F403E
:102590001E4BC9F81830C9F83CB0A9F840B0084B38
:1025A000B362084AF262AB620749E962CAF82830AE
:1025B000C8F82810C9F82820BDE8F88F8011010854
:1025C00044050020280500200C050020A40300205D
:1025D000C804002000000C420000A8410000F041A7
:1025E000840400200000AA42000096420000A0419E
:1025F0004004002067617A000000FA43FC030020D9
:1026000000803B4500007A44B80300200000C84227
:102610002DE9F04105460F469046002400E00134C4
:10262000EB6BA3420FDD04F10A0355F82360394632
:10263000B01CFDF7A5FD0028F1D14246318B706931
:1026400004F024F8EBE7BDE8F08100002DE9F0414B
:1026500084B09A4D02AC20460AF0B0FA94E8030028
:1026600085E8030096490AF011FB964996480BF05D
:10267000FBFC964B1870002831D0924B93F84430F5
:10268000012B7ED013200AF07DFE914B1880914BD8
:1026900058610090904B01220021104609F0ACFFD8
:1026A000FFF710F88D4B18808D4C606100908D4BBA
:1026B00001220021104609F09FFF6069FEF736FBFA
:1026C0000546E169FEF738FD002860D0A16928467B
:1026D000FEF728FD002840F09780002358E07A4D4F
:1026E000B5F90400FDF706FF00227F4BFEF796F8D0
:1026F000FEF742FA80B2DFF8F481A8F800007C4BC4
:102700005861E868FDF7E6FE00227A4BFEF786F88E
:1027100006460F46FEF730FA84B2774B1C803046EF
:102720003946FEF701FA754B58612869FDF7D2FE6C
:102730000022704BFEF772F806460F46704DFEF70A
:102740001BFA288030463946FEF7EEF96D4B58618A
:1027500000946D4B01220021104609F04DFF2B889B
:1027600000936A4B01220021104609F045FFB8F89A
:1027700000300093664B01220021104609F03CFF17
:102780007BE750480BF0B3FA504B18707AE7002300
:10279000604A1360524AA2F840305A4B9D6958690A
:1027A000FEF7C4FA4FF001042946FEF7BBFC08B956
:1027B0004FF00004534BA3F84040414B9B68112B52
:1027C00047DC444B9D695869FEF7B0FA4FF00104AD
:1027D0002946FEF7B1FC08B94FF00004E4B24E4AB6
:1027E00014603C4AA2F84040414D6869FEF79EFAE9
:1027F0000446E969FEF7A0FC40B1A9692046FEF74E
:1028000091FCC8B9002302E00123C1E70023434A39
:102810001360374AA2F84030384D6869FEF786FAEF
:102820000446E969FEF788FC40B1A9692046FEF735
:1028300079FC60B9002302E00123E8E70023384A6D
:1028400013602E4AA2F8403004B0BDE8F0810123A5
:10285000F5E7274D6869FEF769FA0446696AFEF7ED
:102860006BFC30B1296A2046FEF75CFCB8B9002346
:1028700000E000232B4A13601D4AA2F840301F4D90
:102880006869FEF753FA0446696AFEF755FC40B1E1
:10289000296A2046FEF746FC68B9002302E00123BE
:1028A000E8E70023204A1360144AA2F840301A4B8C
:1028B00001221A60C8E70123F4E700BF9C0300204F
:1028C00078030020AC050020980500209505002025
:1028D00088050020B8030020AC15010886050020FB
:1028E000FC030020C41501080000594084050020A5
:1028F000C804002000408F408C0500208404002084
:102900008A050020400400206C1501088415010888
:1029100094150108700500206C050020800500203A
:102920007C050020780500207405002000207047F9
:1029300008B5044B1B780BB9002008BD00F00CFC57
:10294000FBE700BF0406002000B583B001900198AA
:1029500000F0E8FC03B05DF804FB08B5FFF7F4FFF6
:1029600008BD000000B583B03E4B76225A700122AC
:102970009A703D4A9A643D4ADA643D4A1A651922C2
:102980001A7106E03B4A136801331360C820FFF751
:10299000DBFF384B1B68042B06DC32480BF08AF94E
:1029A000354B18700028EDD1334B93F90030BBB193
:1029B0002C4B77225A702F4B00221A602D4B1B682C
:1029C000042B0DDC27480BF075F92C4B187038B12F
:1029D000284A136801331360C820FFF7B5FFEDE7FD
:1029E000254B93F900301BB1244B93F900305BBBAE
:1029F000234B01220021104609F0FEFD1949022354
:102A000081F83830032281F83A20042281F83920F5
:102A100081F83B30012381F83E304FF4A072A1F8D9
:102A200040209622A1F8422081F84430DF200BF0AC
:102A3000A5F9114B187070B90A490DF106000BF099
:102A4000DBFA03B05DF804FB0E4B012200211046B7
:102A500009F0D2FDFEE70C4B01220021104609F0DF
:102A6000CBFDE9E7AC0500200D2300083523000865
:102A70005B290008900500209505002094050020A2
:102A8000DC150108001601082016010870B582B097
:102A900072480AF0D7F9724C6069FEF747F9A169EC
:102AA000FEF74AFB00285ED16E4B9B68112B00F3AA
:102AB00001816D4B1B6813B16C4B1B6843BB6C4CA5
:102AC0006069FEF733F90646A169FEF735FB48B9A0
:102AD000684D6869FEF72AF90446A969FEF72CFBE0
:102AE00000287ED0624C002263492046FFF790FD0B
:102AF0000123624A5383624A13606069FEF716F944
:102B0000A169FEF719FB00285ED15E4B00221A6016
:102B1000564B1B6813B15A4B1B682BB9524B1B68A1
:102B200053B1584B1B683BB1012253495148FFF741
:102B30006FFD524B00225A834B4B1B68002B00F059
:102B40000081514C6069FEF7F1F8A169FEF7EAFADD
:102B500000287AD000224D492046FFF759FD4C4B02
:102B600001225A83EDE04B4B01220021104609F06F
:102B700043FD012240492046FFF74AFD0122434917
:102B80003B48FFF745FD012243494448FFF740FD1C
:102B900000233A4A53833E4A5383414A5383414B6D
:102BA000DB68022B40F3FA802C4C002200923E4B53
:102BB0004EF6602120460AF0E7F820460AF09CF91C
:102BC0003A4B01221A70E9E000242D4B1C600122CF
:102BD0002C4B1A602D492648FFF71AFD2C4B5C83BD
:102BE00096E7234BDD6929463046FEF79BFA30B95C
:102BF000204BD9692046FEF795FA002888D029464F
:102C00003046FEF78FFAB8B91A4C6069FEF78EF8B5
:102C1000E169FEF787FA00283FF47AAF244B1B687E
:102C2000002B3FF475AF00221B492046FFF7F0FC54
:102C30001B4B01225A836BE7002214490C48FFF713
:102C4000E7FC134B01225A83DEE701220F490E48AD
:102C5000FFF7DEFC0E4B00225A8372E06003002077
:102C60004004002078030020800500207C0500201F
:102C7000C8040020840400208016010844050020B8
:102C80006805002064050020B80300208C160108A8
:102C9000280500204016010894160108FC030020B6
:102CA0000C050020A40300205D230008600500201F
:102CB00070050020844B1B6813B1844B1B6843BB19
:102CC000834C6069FEF732F80646216AFEF734FA53
:102CD00048B9804D6869FEF729F80446296AFEF76D
:102CE0002BFA002869D07A4C00227B492046FFF756
:102CF0008FFC0123794A5383794A13606069FEF798
:102D000015F8216AFEF718FA002849D1754B002200
:102D10001A606E4B1B6813B1714B1B682BB96A4B61
:102D20001B6853B16F4B1B683BB101226A4969486C
:102D3000FFF76EFC694B00225A83634B1B68002B24
:102D40006DD1694D6869FDF7F1FF0446A969FEF789
:102D5000F3F900286CD1644BD9692046FEF7E2F9FB
:102D600000286ED14FF4FA70FFF7EEFD5F4B9B68C1
:102D7000112B00F399805E4B1B684BB15D4B1B68B8
:102D800033B15D4B1B681BB15C4B1B68002B61D1E1
:102D9000FFF75CFC0121022009F058FD02B070BD74
:102DA00000244F4B1C6001224E4B1A605449484886
:102DB000FFF72EFC534B5C83ABE7454B5D6A29461E
:102DC0003046FEF7AFF930B9424B596A2046FEF75C
:102DD000A9F900289DD029463046FEF7A3F9A8B9E5
:102DE0003C4C6069FDF7A2FF616AFEF79BF9002881
:102DF0008FD0414B1B68002B8BD0002242492046CC
:102E0000FFF706FC414B01225A8382E700223C492E
:102E10002F48FFF7FDFB3B4B01225A83E0E70122DD
:102E200037493B48FFF7F4FB364B00225A8388E7CB
:102E3000002235492846FFF7EBFB344B01225A8329
:102E400090E7012230492848FFF7E2FB2F4B002290
:102E50005A8387E70024264B1C60264B1C60264BB8
:102E60001C60264B1C601E4B1C601E4B1C601B4BC9
:102E70005C83244B5C83254B5C83012216492548E7
:102E8000FFF7C6FB01221E491148FFF7C1FB0122D3
:102E90001D491548FFF7BCFB1F4B03221A70214642
:102EA000012009F0D3FC79E7074B1B682BB1074BD6
:102EB0001B6813B1104B1B6883BBFFF7C7FB0121D5
:102EC000022009F0C3FC69E77805002074050020A2
:102ED000C804002084040020801601084405002056
:102EE0006805002064050020FC0300207803002012
:102EF000800500207C050020700500206C05002066
:102F00008C16010828050020941601080C050020E5
:102F1000B803002040040020420000200024144B8D
:102F20001C60144B1C60144B1C60144B1C60144B35
:102F30001C60144B1C60144B5C83144B5C83144B5F
:102F40005C83012213491448FFF762FB01221349F5
:102F50001348FFF75DFB012212491348FFF758FBA6
:102F6000124B03221A702146012009F06FFC15E76D
:102F70007805002074050020700500206C050020F5
:102F80006805002064050020440500202805002075
:102F90000C05002080160108400400208C16010852
:102FA000C804002094160108FC0300204200002001
:102FB000F0B589B0224AD2F8903043F48043C2F889
:102FC000903002F00FF902F015F902F01BF900241D
:102FD0000394049405940694079401230493032313
:102FE00006934FF0B043DA6C42F00202DA64DA6C16
:102FF00002F002020292029ADA6C42F00202DA64F1
:10300000DB6C03F002030193019B4FF4805703979D
:103010000C4D03A9284603F0E9F94FF40056039636
:1030200003A9284603F0E2F922463946284603F070
:103030002DFB22463146284603F028FB09B0F0BD9F
:1030400000080058000400480120704708B50CF043
:1030500043F9162303604FF0FF3008BD08B54FF069
:10306000FF31FFF7F3FFFEE770B50C46164600256B
:1030700006E0AFF30080214601F8010B01350C4654
:10308000B542F6DB304670BD70B50C4616460025DD
:1030900004E014F8010BAFF300800135B542F8DB12
:1030A000304670BD4FF0FF3070474FF400534B6017
:1030B00000207047012070470020704710B503467C
:1030C0000C4A0D490D48006840B10C4800680344A3
:1030D000521A934206D8094A136010BD0748084C9B
:1030E0000460F2E70CF0F8F80C2303604FF0FF30B7
:1030F000F3E700BF00800020000800000806002061
:1031000008120020064B986801E0054B9868044BB4
:103110009B688342F9D1C043024B1860704700BFDF
:10312000002800400C060020014B1868704700BFC3
:103130000C060020064B986801E0054B9868044B8C
:103140009B688342F9D1C043024B1B68C01A704789
:10315000002800400C060020074B1B7853B1074B9A
:10316000986801E0054B9868044B9B688342F9D14D
:10317000C043704700207047100600200028004020
:103180000320704708B501464FF47A72002380028D
:10319000890DFEF735F808BDC20E43011B1A62F116
:1031A0000002920042EA93729B001B1842F1000059
:1031B000C00040EA5370C3F3D51343EA8050704710
:1031C00010B5074B0122DA65064C4FF4807120469A
:1031D00004F0D0FF4FF0FF332363002010BD00BF89
:1031E000002800401C03002008B5024602210248C6
:1031F00005F00BFA08BD00BF1C03002038B50F4BCB
:103200001B780BB1002038BD0D4C4FF0FF35256306
:10321000FEF74EFFFFF7D4FF4FF48071204604F015
:10322000A9FF2563204605F08FF90020FFF7DCFF9A
:10323000FFF768FF014B01221A70E3E71006002038
:103240001C03002008B502460021024805F0DDF904
:1032500008BD00BF1C03002008B50246012102483A
:1032600005F0D3F908BD00BF1C03002010B58CB0D9
:1032700004462C22002101A80BF036FFFFF7A0FF27
:103280000C4B1B681C4400230893E44302940693F0
:103290004FF0005307934FF480730B93012201A961
:1032A000054805F095F810B900200CB010BDFEF7E8
:1032B00073FEF9E70C0600201C03002008B502216C
:1032C000014805F0A9F908BD1C03002038B50546E2
:1032D0000B4B9C6801E00A4B9C68094A9268A24229
:1032E000F9D1E443FFF7EAFF2346A40A44EA8054F5
:1032F000C3F30900FFF750FF2880204638BD00BF08
:103300000028004008B50021014805F085F908BDF6
:103310001C03002008B50121014805F07DF908BD16
:103320001C03002008B5FFF72DFF0C4B996801E046
:103330000A4B9968094B9B688B42F9D109E0074B0E
:103340009B68064A92689A42F9D1CB1A984203D9EF
:1033500000BF024B9B68F4E708BD00BF0028004097
:1033600008B509F029FE08BD08B5FFF7A7FF013031
:10337000FFF73AFF08BD000008B51748174B036078
:103380004FF4E133436000238360C36003610C2288
:1033900042618361C36103624362836206F0A2FCFF
:1033A00070B900210C4806F052FE60B900210A48AD
:1033B00006F072FE50B9084806F025FE48B908BD6F
:1033C000FEF7EAFDEDE7FEF7E7FDEFE7FEF7E4FDC8
:1033D000F1E7FEF7E1FDF2E7740600200038014056
:1033E00030B597B0044600211191129113911491B8
:1033F0001591382203A80BF077FE22682D4B9A42D4
:1034000001D017B030BD0123039303F5403304937B
:1034100003A804F08FFD002843D14FF0B0431A6E8B
:1034200042F480421A661A6E02F480420292029AB4
:10343000DA6C42F00202DA64DB6C03F002030193FF
:10344000019BC0231193022312930025139503239C
:1034500014930723159311A9174802F0C7FF1748C3
:10346000174B03601223436010238360C5608023E1
:10347000036145618561C561056202F0A3FD98B9EC
:1034800010210E4802F09EFF88B90C4BE3679C6246
:1034900000220221242002F0FBFB242002F008FC81
:1034A000AFE7FEF779FDB8E7FEF776FDE8E7FEF750
:1034B00073FDEAE7003801400004004814060020CC
:1034C0005800024002680B4B9A4200D0704710B57A
:1034D00004464FF0B042136E23F480431366C021BC
:1034E000054803F055F8E06F02F0DCFD242002F0FF
:1034F000E3FB10BD003801400004004808B5074B4D
:103500001860FEF73BFCFFF737FF054AD2F8803022
:1035100043F00063C2F88030002008BD0C07002093
:103520000008005808B54FF0B0431A6C42F48042CE
:103530001A641A6C22F480421A640448FFF7C2FF2E
:103540000F2002F0B9FB002008BD00BF7406002068
:1035500008B50A460146024805F044FC002008BDB3
:103560007406002010B582B0124B18604FF400139F
:10357000009302AB13E906000F4806F0ECFC0E4B7B
:103580001B68DA6912F4803FF9D1DA6912F4800F0E
:10359000FBD09A6842F480029A60074C204606F0FD
:1035A0001BFD01220549204606F06EFC002002B0FA
:1035B00010BD00BF0807002074060020100700207F
:1035C00008B5074806F08EFB20B9064802F0FAFC61
:1035D00018B908BDFEF7E0FCF7E7FEF7DDFCF8E7F9
:1035E000740600201406002008B50268044B9A42B5
:1035F00000D008BD034B1B6800209847F9E700BFC7
:10360000003801400C07002002680A4B9A4200D0A3
:10361000704710B50446084B1B682BB1D0F89020BA
:1036200012B901210548984701220449204606F0B5
:103630002BFC10BD003801400807002010070020B7
:103640000D48854601F0A9FD0C480D490D4A00239F
:1036500002E0D458C4500433C4188C42F9D30A4A47
:103660000A4C002301E013600432A242FBD30BF0AA
:1036700039FEFEF7DBFCFEE70080002000000020A2
:1036800020020020702701082002002008120020DC
:10369000FEE708B5FEF776FE00F0FEF908BD08B5B6
:1036A0004FF0FF3009F006F908BD000008B5FDF73E
:1036B00039FB0249FDF742FC08BD00BF00007A4417
:1036C00000B585B08B1A1BB2039202910193009052
:1036D000044B01220021022008F08EFF05B05DF8A6
:1036E00004FB00BF9C1601082DE9F0439DB00F4676
:1036F00016461D4629493846FDF720FC80462946D6
:103700003046FDF767FB044601464046FDF762FB85
:1037100081460021FDF756FA80463846FCF7FCFE4C
:10372000CDE900011E4A102118A80BF0ADFB1D4F7A
:103730003046FCF7F1FECDE900013A46102114A80D
:103740000BF0A2FB2846FCF7E7FECDE900013A4664
:10375000102110A80BF098FB2046FCF7DDFECDE908
:103760000001114A10210CA80BF08EFB0F4C4846AB
:10377000FCF7D2FECDE900012246142107A80BF088
:1037800083FB4046FCF7C8FECDE900012246142128
:1037900002A80BF079FB1DB0BDE8F08300007A446D
:1037A000DC160108E4160108EC160108F4160108FD
:1037B00008B5074B01220021104608F01DFF054BFC
:1037C00002221A700021012009F040F808BD00BF54
:1037D000FC1601084200002008B5064B012200211A
:1037E000104608F009FF0120034B1870002109F072
:1037F0002DF808BD081701084200002008B5074B46
:1038000001220021104608F0F7FE054B04221A7031
:103810000021012009F01AF808BD00BF181701089F
:103820004200002038B50E4B01220021104608F05E
:10383000E3FE0C4B1B785BB10A4B00221A700A4B5B
:103840009D6A0A4C2046FCF7FBFCC1B22046A84703
:10385000074B03221A700021012008F0F7FF38BD42
:10386000281701081308002040220108140800202E
:103870004200002008B50A4B05221A7000210120E1
:1038800008F0E4FF074B01220021104608F0B4FEC7
:10389000054809F031FB054B01221A7008BD00BF35
:1038A00042000020341701086C0900209C09002008
:1038B00008B50A4B05221A700021012008F0C6FF46
:1038C000074B01220021104608F096FE054809F03A
:1038D00013FB054B01221A7008BD00BF42000020F7
:1038E00060170108840900209D090020F0B583B00D
:1038F00007460C4616461D46144B01220021104671
:1039000008F07AFE01950096114B01220021104625
:1039100008F072FE00210F4B1970FF220E480BF0C9
:10392000E3FB0E4B1C80FF2C09D90D4B1E700D4B79
:103930001D700021012008F089FF03B0F0BD224670
:10394000394605480BF0F5FCEFE700BF8817010882
:103950009417010842000020A80A0020A4090020B2
:10396000A2090020A109002070B5ADF5307D044604
:103970000E464FF40072002130A80BF0B5FB204634
:10398000FCF75EFC014630AA2046FEF787F9051ECB
:1039900030DD1D496846FEF7DBF8002405E030AB5A
:1039A00019196846FEF7DFF81034AC42F7DB681EE1
:1039B00030AB1A5C531EDBB20F2B1ED800239A4289
:1039C00008DDA0EB030C30A911F80C4094420FD194
:1039D0000133F4E701239BB1AD1A2A4630A93046E2
:1039E0000BF0A7FC0023735528460DF5307D70BD04
:1039F0000023F0E74FF0FF35F6E76FF00105F3E73E
:103A00006FF00105F0E700BF6421010870B5ADF566
:103A1000307D04460E464FF40072002130A80BF0B2
:103A200063FB2046FCF70CFC0546B0F5007F01D98E
:103A30004FF400752A46214630A80BF07AFCEAB212
:103A400005F00F03C3F11003DBB25919B1F5007F84
:103A500001D95242D3B2002403E0621930A98B5439
:103A60000134A342F9DC5C190A496846FEF770F894
:103A7000002505E030AB59196846FEF76DF81035A2
:103A8000A542F7D33246214630A8FEF799F80DF546
:103A9000307D70BD642101082DE9F0438BB0604B8F
:103AA00000221146022008F0A7FD012402940325FC
:103AB000019500945B4B00221146022008F09CFD0A
:103AC000029401950094584B00221146022008F000
:103AD00093FD564CE168564D00220092554B4EF630
:103AE000602000FB01F1284609F04EF9284609F054
:103AF00003FA2169E368994240F083804E484F4BB6
:103B000003604F4B83604F4B43604F4BC3604F4B41
:103B100003614F4E3368984773699847800D4D4F46
:103B20003860F3684C4898474C4B002211460220FD
:103B300008F062FD4A4B00221146022008F05CFDAD
:103B40007D230093474B00221146022008F054FDCC
:103B50004FF00708CDF80080434B002211460220A9
:103B600008F04AFD41F28833089300240794069434
:103B700005940125049503944FF00809CDF80890A9
:103B80000195CDF80080234622460E212846D6F81E
:103B90001CC0E04709950894079406940595049481
:103BA000039405230293CDF8049000942B464246DB
:103BB00021462846D6F818C0E047736DFF212846F5
:103BC0009847FF22214629480BF08EFA3B68009364
:103BD000274B2A462146284608F00EFD736B3868AD
:103BE00000F56A5018309847224A2146284608F0C6
:103BF000F3FE214A2146022008F0EEFE0BB0BDE89C
:103C0000F0831E4C002200921D4B4EF6602000FBFC
:103C100001F1204609F0B8F8204609F06DF96DE78A
:103C2000B8170108C8170108EC170108A403002001
:103C300084090020B1380008A80B002025380008AE
:103C4000ED380008FD370008D9370008B137000803
:103C5000402201086408002000A1BC3310180108AC
:103C600024180108381801084C180108A809002078
:103C70005C180108554600088D2A00086C090020D0
:103C8000753800082DE9F04F87B005468A4616467C
:103C90001C46DDF84490FEF74BFE8046FDF7F0FC35
:103CA0000746A8EB0600FDF73DF880463846FFF7CB
:103CB000FDFC1099FDF78EF806461C494046FDF7BD
:103CC0003DF93146FDF786F88046E41B24B20146F3
:103CD000D9F80000FCF776FFC9F800002846FCF789
:103CE000AFFA83463046FCF717FC06460F464046BF
:103CF000FCF712FC804689460494CDE90289CDE99F
:103D000000670B4AAAEB0B0105EB0B000BF0BCF8AC
:103D10000494CDE90289CDE90067064B0122002118
:103D2000104608F069FC07B0BDE8F08F00007A4447
:103D3000681801088418010810B5044603220849D0
:103D40000BF0E9F938B10322064920460BF0E3F9FC
:103D500018B9012000E0012010BD0020FCE700BFE1
:103D6000C8180108CC18010884B02DE9F04184B0CE
:103D700006460BAC84E80E00DDF84480129F9DF8E7
:103D8000403000932346104AFF210BF07DF8044693
:103D9000002511E058F82530B3F8402002925A6906
:103DA00001921A6800920433084AC4F1FF013019E5
:103DB0000BF06AF804440135BD42EBDB04B0BDE80A
:103DC000F04104B0704700BFD0180108D8180108AE
:103DD00030B593B0054613460A4611490BF08AF8F0
:103DE000104B93E8070012AB03E90700002412E030
:103DF00012AB03EB840353F80C1C0A4632F8023B67
:103E0000498B0091084902A80BF074F802A92846D2
:103E10000BF072F90134022CEADD13B030BD00BFA3
:103E2000D018010828120108E81801082DE9F04708
:103E300084B006469946DDF830A0DDF834800E9F48
:103E400000920B46184AFF210BF01EF8044600258D
:103E500011E059F82530B3F8402002925A690192D6
:103E60001A6800920433114AC4F1FF0130190BF0B3
:103E70000BF8044401355545EBDB00250FE058F8FD
:103E80002520134633F8021B528B01920091084AF9
:103E9000C4F1FF0130190AF0F7FF04440135BD42B7
:103EA000EDDB04B0BDE8F087D0180108D818010890
:103EB000E818010838B505460C461D492046FCF7B0
:103EC0005FF918B91B4B1B68AB4224D01A49204636
:103ED000FCF756F918B9194B1B68AB421DD01849AD
:103EE0002046FCF74DF918B9164B1B68AB4216D0AB
:103EF00015492046FCF744F918B9144B1B68AB422E
:103F00000FD013492046FCF73BF960B9114B1B68F1
:103F1000AB420AD038BD0748FCE70848FAE7094831
:103F2000F8E70A48F6E70020F4E70A48F2E700BF9E
:103F3000CC040020C8040020880400208404002051
:103F4000440400204004002000040020FC03002062
:103F5000BC030020B803002038B505460C461249C2
:103F60002046FCF70DF918B9104B1B88AB4212D054
:103F70000F492046FCF704F918B90E4B1B88AB42D9
:103F80000BD00D492046FCF7FBF840B90B4B1B88C2
:103F9000AB4206D038BD0548FCE70648FAE70020EA
:103FA000F8E70648F6E700BF460500204405002074
:103FB0002A050020280500200E0500200C05002001
:103FC00010B586B004460A46044901A80AF092FFDB
:103FD00001A920460BF090F806B010BDF4180108B6
:103FE0002DE9F04FB1B00146642217A80BF0A5F8F7
:103FF00000238DF8BF30AE4917A80BF0C7F8002892
:104000003AD00146042216A80BF097F800208DF84C
:104010005B00A7490BF0BAF870B3A649FCF7B0F8FB
:1040200020BBA54B05221A700021012008F00EFCD0
:10403000A24916A8FCF7A4F808B3A14916A8FCF7F2
:104040009FF8002800F084809E4916A8FCF798F895
:10405000002800F09C809C4916A8FCF791F80028E5
:1040600040F0FD80994B01221A7005E0984B012227
:104070000021104608F0C0FA31B0BDE8F08F8C493D
:104080000BF084F818B10AF03FF88A4BD8608849E1
:1040900000200BF07BF818B10AF036F8854B186158
:1040A000844C23690193E36800938A4B0122002129
:1040B000104608F0A1FA2346874AFF2187480AF0F4
:1040C000E3FE2269E3689A4238D0854D284608F01D
:1040D000B9FE784E316900240094824B22464EF698
:1040E000602000FB01F1284608F04EFE284608F04B
:1040F00003FF336900937C4B01222146104608F0F0
:104100007BFA7A4D284608F09DFE6A4EF16800243D
:104110000094774B22464EF6602000FB01F12846C2
:1041200008F032FE284608F0E7FEF3680093714B72
:1041300001222146104608F05FFA9DE7684808F022
:1041400081FE6D4B01220021104608F055FAD8E798
:1041500057490BF01BF898B10A2200210AF0CAF85F
:104160000C900024ADF834400CAB93E8030008F049
:1041700003FD624B01222146104608F03DFA7BE721
:104180005F4B01220021104608F036FA74E7484CD4
:1041900021460AF0FBFF0546214600200AF0F6FF03
:1041A00009F0B2FF0646214600200AF0EFFF09F0B1
:1041B000ABFF8046214600200AF0E8FF09F0A4FF8B
:1041C0000746214600200AF0E1FF09F09DFF8146E5
:1041D000214600200AF0DAFF09F096FF82462946C0
:1041E0003046FFF767FE044648B34046FCF79EFDA5
:1041F000A0613846FCF79AFDE06142492846FBF78A
:10420000BFFF20B140492846FBF7BAFF38B94846FE
:10421000FCF78CFD20625046FCF788FD6062043498
:1042200000943A4B01220021104608F0E5F9009471
:10423000204B374AFF2129480AF026FE1CE700954B
:10424000344B01220021104608F0D6F904340094C2
:10425000184B314AFF2121480AF016FE0CE72F497E
:1042600016A8FBF78DFF00285CD02D4916A8FBF798
:1042700087FF0590002840F085810D490AF086FFF0
:10428000834600283FF4F8AE094900200AF07EFF7B
:1042900000283FF4F1AE09F037FF05465946FFF715
:1042A0005BFE0446002800F09380059EDAE000BF24
:1042B000FC180108A4030020420000203419010862
:1042C000EC190108381A0108C81A01089F090020D2
:1042D000001901083819010860190108A80900200F
:1042E0006C09002075380008A41901088409002011
:1042F000B1380008C81901087C190108F019010833
:10430000081A01083C1A0108481A0108541A010841
:10431000701A0108901A0108AC1A0108CC1A010899
:10432000481B01089F490AF031FF054600283FF469
:10433000A3AE9C4900200AF029FF00283FF49CAE60
:1043400009F0E2FE0446974900200AF01FFF00280A
:104350003FF492AE09F0D8FE934B01221A70294621
:10436000FFF7FAFD064658B34483054635F8023B8D
:104370000293A3B2019300958C4B8D4AFF218D4887
:104380000AF082FD884B01221A7094420CD001225F
:10439000318B706902F07AF90095874B0122002178
:1043A000104608F029F967E60095844B0021104675
:1043B00008F022F90022318B706902F067F95BE6A0
:1043C00000957F4B01220021104608F015F953E6B5
:1043D0000195CDF800B07B4B01220021104608F07A
:1043E0000BF9CDF800B0714B774AFF2171480AF004
:1043F0004BFD41E6CDF80480CDF80090734B0122CF
:104400000021104608F0F8F8CDF80090674B704A8C
:10441000FF2168480AF038FD24E00135FB6BAB4210
:1044200018DD05F10A0357F82300028823889A4211
:10443000F3D1A11C0230FBF7A3FE0028EDD1CDF88B
:104440000480CDF80090634B01220021104608F053
:10445000D3F801E0042B1BDD30AB03EB860343F8FC
:10446000907C01364F4900200AF090FE814610B33F
:104470004C4900200AF08AFEE8B109F045FE80466A
:104480004946FFF717FD07460028B3D0059DC5E74D
:104490005A1CFA630A3347F82340A31C3A4652F8E1
:1044A000041B0291019200934B4B01220021104604
:1044B00008F0A2F8D0E707AD484F0FCF0FC53B6813
:1044C0002B60DDF8149017E00137BE4210DD2A683A
:1044D00030AB03EB870353F8901C0B689A42F3D17F
:1044E0000431281DFBF74CFE0028EDD1012300E02C
:1044F00000235BB109F10109B9F1040F39D830ABE0
:1045000003EB890353F8A45C059FDEE7059F1BE0DE
:1045100007F10B0355F8232007F10A0345F8232080
:10452000013708F1FF33BB42F2DCEB6355F8043B83
:1045300002930195CDF800A0294B012200211046DD
:1045400008F05AF8D6E70137D5F83C80B845D1DDF8
:1045500007F10A0355F82300028823889A42F2D112
:1045600004F1020A51460230FBF70AFE0028EAD1A4
:10457000D7E7CDF800B00D4B1A4AFF210D480AF0DD
:1045800083FC79E516AB0093174B012200211046FE
:1045900008F032F8054B154AFF2106480AF074FC72
:1045A0006AE500BFFC1801089E090020A403002052
:1045B000D01A0108A8090020001B0108E01A010810
:1045C0001C1B01084C1B0108701B0108901B0108F3
:1045D000B01B0108CC1B0108F01B010834120108B4
:1045E0001C1C0108481C01086C1C01088C1C0108DB
:1045F00070B584B00546144E3046FBF721FE0446E4
:1046000002463146284601F009FC03460F4A0921BB
:1046100001A80AF039FC04F10A03FE2B0DD804F1BD
:1046200008023B21B154A51901AA03CA305169609F
:1046300009340022325504B070BD054B012200211F
:10464000104607F0D9FFF6E7A8090020A41C0108CE
:10465000AC1C01082DE9F04FADF22C5D424BDB6A3A
:104660009847424B1B78052B00F26082DFE813F07D
:10467000060085048B047104A50463013A4BDB6DCD
:104680009847C830FEF760F9394B1B88394D002434
:10469000EC540093384B01222146104607F0ACFF42
:1046A0000095364B01222146104607F0A5FF4FF436
:1046B000807221464AA80AF017FD4AA92846FFF74A
:1046C00053F9A04245DD2B4CFE224AA920460AF0B0
:1046D00034FD002184F8FE100094294B012210467D
:1046E00007F08AFF2046FBF7ABFD18B1431EE25CE2
:1046F0003B2A35D01F4F3B2138460AF031FD054695
:104700000024079408948DF824400822411C07A82F
:104710000AF013FD1022214607A809F0EBFD06461A
:104720006C703846FBF78CFD0246164801688B68B2
:1047300043F001038B60394601F070FB864227D0BD
:1047400001960090104B01222146104607F054FFBD
:10475000ECE10E4B01222146104607F04DFFE5E14A
:104760000021E154C6E700BF4022010842000020BA
:10477000A4090020A80A0020D41C0108EC1C010890
:104780002C1D0108A0020020481D0108081D010879
:104790000090B94B01220021104607F02DFF0322A3
:1047A000B649B7480AF0B7FC002800F0C381B54B02
:1047B0001B783BB10422B449B1480AF0ACFC002894
:1047C00000F0C181FF22AE490AA80AF0B6FC00241D
:1047D0008DF82641AD4D29460AA80AF0D7FC294696
:1047E00020460AF0D3FC0346002800F09F81A84C25
:1047F000A84AFF2120460AF047FBFEF799F8014638
:104800002046FFF7DDFBDFF890924846FFF7F0FE09
:104810004FF4807200218AA80AF066FC8AA920461B
:10482000FFF7F4F8FE228AA920460AF086FC00254C
:1048300084F8FE500094994B01222946104607F057
:10484000DBFE974FBE6A2046FBF7FAFCC1B220465A
:10485000B047FF228A4993480AF06FFC0126894B32
:104860001E707B6B43F698209847FEF761F804466C
:10487000FCF706FF80468C4B1868201AFCF752FAAA
:1048800004464046FEF712FF0746DFF820A2DFF895
:1048900020B25346024621465846FEF725FF4246BF
:1048A000844B19885846FEF70BFF51463846FCF7F3
:1048B00091FA074680492046FCF740FB01463846FE
:1048C000FCF788FADFF8F481FBF726FECDE9040156
:1048D0003846FBF721FECDE902012046FBF71CFE1E
:1048E000CDE90001764AFF2140460AF0CDFAFEF7F5
:1048F0001FF801464046FFF763FB4846FFF778FE86
:104900004FF400722946CAA80AF0EEFBCAA9404635
:10491000FFF77CF86B4C3F22CAA920460AF00DFC39
:1049200084F83F500094684B32462946304607F0E1
:1049300063FE664B1E70FDF7FBFF654B1860FCF7CE
:104940009FFE644B1880FF2200214D480AF0CCFBEB
:1049500007A808F033F9079D8AA9284608F096F9B8
:104960008A9B02938B9B01938C9B00935A4B012251
:104970000021104607F040FE584B1B78002B40F0FA
:104980002981574B93F900301BB9564B1B78002BEC
:104990006BD0FDF71DFD544B1870FDF757FE01213C
:1049A000022007F053FF00214D4B19704D4B197039
:1049B0004E4B0122104607F01FFE4D4BDA681B6973
:1049C0009A4200F051814AAF3C464A4E0FCE0FC486
:1049D00033682360464B2E4C052204920397424ACB
:1049E0001278029203F10C0292E803008DE80300B2
:1049F0000ECB2046FFF7B8F929462046FFF7E0FA2C
:104A00003D4B01933D4B0093324B1B88304A12685B
:104A1000FF212046FFF736F91F48FFF7E9FD009414
:104A2000374B01220021104607F0E6FD80220021CD
:104A3000CAA80AF059FBCAA92046FEF7E7FFFE22E2
:104A4000CAA920460AF079FB002184F8FE100094E0
:104A50002C4B0122104607F0CFFD114B9E6A2046D9
:104A6000FBF7EEFBC1B22046B047274B1B78002B6B
:104A700040F04E814AE000BF741D0108881D010806
:104A8000A80A0020690800208C1D0108FC180108F4
:104A9000A8090020F01D0108A0020020FC1D01084B
:104AA000402201086C080020580800205839B43B07
:104AB000181E01085408002000007A441407002042
:104AC0001C1E0108140800203C1E010813080020C9
:104AD0005C080020560800205C1E01081803002016
:104AE0009D09002060050020A0090020001F01088A
:104AF000A4030020341201086008002031082C3D76
:104B00009C1E0108681F01089C090020A44B1B780B
:104B1000002B40F07F81A34B1B78002B40F0DA8103
:104B2000A14BDB6D9847C830FDF70EFF0DF22C5DF1
:104B3000BDE8F08F9D48FFF753FA9B4B5B6B43F644
:104B400098209847F2E70120994B18700021994B63
:104B50001970994B024607F04FFD984C2046FFF71D
:104B60003FFA2046FFF7E8F80446954D954B964AE4
:104B7000FF2128460AF088F9FDF7DAFE01462846AB
:104B8000FFF71EFA9148FFF733FD84B18C4C009477
:104B90008F4B01220021104607F02EFD824B9D6AAB
:104BA0002046FBF74DFBC1B22046A847BEE74FF4B5
:104BB00000720021CAA80AF097FACAA92846FEF78F
:104BC00025FFFE22CAA928460AF0B7FA002385F875
:104BD000FE30DBE700267F4B1E70794C01957E4B43
:104BE0001B780093774B7D4AFF2120460AF04CF951
:104BF0007B4B01937B4B00937B4B1B887B4A12685A
:104C0000FF212046FFF73EF87048FFF7F1FC0094C3
:104C1000774B01223146104607F0EEFC80223146E8
:104C2000CAA80AF061FACAA92046FEF7EFFEFE22E2
:104C3000CAA920460AF081FA84F8FE606D4B012271
:104C40003146104607F0D8FC00946B4B01223146E8
:104C5000104607F0D1FC544B9E6A2046FBF7F0FA51
:104C6000C1B22046B0478CE60AAF644C94E8070016
:104C700087E807004AAE0C340FCC0FC623683360B8
:104C80004F4C032302930197052300934AAB5C4AE0
:104C900012784C492046FFF7C9F829462046FFF70D
:104CA0008FF94F4B01934F4B00934F4B1B884F4A4B
:104CB0001268FF212046FEF7E5FF4448FFF798FC05
:104CC0000094504B01220021104607F095FC4FF450
:104CD00080720021CAA80AF007FACAA92046FEF786
:104CE00095FEFE22CAA920460AF027FA002184F880
:104CF000FE100094444B0122104607F07DFC2A4B25
:104D00009E6A2046FBF79CFAC1B22046B047ACE64B
:104D1000FDF75EFB02463A4B1870294C29492046A4
:104D2000FFF756F829462046FFF74AF92C4B019326
:104D30002C4B00932C4B1B882C4A1268FF212046D9
:104D4000FEF7A0FF00942A4B01220021104607F035
:104D500053FC1E48FFF74CFC80220021CAA80AF031
:104D6000C3F9CAA92046FEF751FEFE22CAA9204671
:104D70000AF0E3F9002684F8FE600094234B012238
:104D80003146104607F038FC074B9F6A2046FBF778
:104D900057FAC1B22046B8471D4B1E70B6E600BF99
:104DA0009F0900209E09002040220108A80A002037
:104DB0006808002069080020941D01086C08002084
:104DC000A8090020A4030020CC1D0108A002002097
:104DD000D41D010818030020410000208C1E01088A
:104DE0006008002031082C3D560800205C08002097
:104DF0009C1E0108C41E0108F81E010828120108A3
:104E0000A0090020141F0108401F0108681F0108A5
:104E10009C090020FDF7DCFADFF8C08188F800006B
:104E2000FDF714FC00276E4B1F700DF1280C6D4C24
:104E300094E807008CE807004AAE0C340FCC0FC68C
:104E400023683360684C03230293CDF804C0052324
:104E500000934AAB98F8002064492046FEF7E6FF2D
:104E600029462046FFF7ACF8614B0193614B009354
:104E7000614B1B88614A1268FF212046FEF702FF42
:104E80005F48FFF7B5FB00945E4B012239461046A0
:104E900007F0B2FB80223946CAA80AF025F9CAA950
:104EA0002046FEF7B3FDFE22CAA920460AF045F9C6
:104EB00084F8FE700094544B01223946104607F0E6
:104EC0009BFB524B9E6A2046FBF7BAF9C1B22046C3
:104ED000B04720E600264E4B1E70434C2946204624
:104EE000FFF76EF8424B0193424B0093424B1B88F5
:104EF000424A1268FF212046FEF7C4FE0094414B4F
:104F000001223146104607F077FB3D48FFF770FB62
:104F10004FF400723146CAA80AF0E6F8CAA9204642
:104F2000FEF774FDFE22CAA920460AF006F984F8AD
:104F3000FE600094374B01223146104607F05CFBBF
:104F4000324B9D6A2046FBF77BF9C1B22046A84749
:104F5000E6E5FDF7EDFC304B1860FCF791FB2F4BBD
:104F600018802F4B01220021104607F045FB274BEC
:104F70005B6B43F698209847D8E5244B5B6B43F670
:104F800098209847D2E5214CE36D9847254B1B6844
:104F90001844C830FDF7D8FC234B012200211046ED
:104FA00007F02AFB104B214A92E803001860998011
:104FB000A26A402118469047B8E51D4B0122002106
:104FC000104607F019FB114B9D6A074C2046FBF772
:104FD00037F9C1B22046A847A8E500BFA0090020C4
:104FE0009F09002028120108A8090020A40300201E
:104FF0006008002031082C3D560800205C08002085
:10500000A00200209C1E0108841F01084022010804
:105010009E090020B01F01085808002054080020F5
:10502000DC1F010864080020E81F01080C200108AB
:105030001420010808B500F015F808BD08B500F007
:1050400053F808BD08B500F09DF808BD08B500F09C
:105050009BF808BD08B500F099F808BD08B500F048
:1050600097F808BD2DE9F04186B000240194029420
:105070000394049405944FF0B043DA6C42F00402B8
:10508000DA64DB6C03F004030093009B10270197A4
:105090000123029303230493124D01A9284601F032
:1050A000A5F94FF02008CDF8048001A9284601F0A9
:1050B0009DF90826019601A9284601F097F9224694
:1050C0004146284601F0E2FA22463946284601F0D8
:1050D000DDFA22463146284601F0D8FA204606B0CD
:1050E000BDE8F0810008004810B5032813D8DFE8B8
:1050F00000F002142536224C00220821204601F03F
:10510000C5FA00221021204601F0C0FA0022202119
:10511000204601F0BBFA002010BD194C01220821E5
:10512000204601F0B3FA01221021204601F0AEFA28
:1051300000222021204601F0A9FAECE7104C0122C0
:105140000821204601F0A2FA01221021204601F098
:105150009DFA01222021204601F098FADBE7084C55
:1051600001220821204601F091FA00221021204658
:1051700001F08CFA01222021204601F087FACAE7CB
:105180000008004800207047012070470120704748
:1051900008B90F20704716207047704710B50320DC
:1051A00000F064FD02F020FA064B18600F20FDF7B6
:1051B000BDFB10B10124204610BD0446FDF728F8C0
:1051C000F9E700BF440000204FF0E022136923F00C
:1051D0000203136170474FF0E022136943F00203AA
:1051E00013617047024A536843F0010353607047EC
:1051F000002004E0024A536843F002035360704702
:10520000002004E0024A536843F0040353607047EF
:10521000002004E030B583B000230193002800F0A3
:1052200006810446836DBBB12268936813F0805FEA
:105230001FD1936823F0104323F0170343F08053EA
:1052400093607C4B1B689B097B4AA2FB03239B0951
:1052500001335B00019309E0FCF794F90023E36557
:1052600084F85430E0E7019B013B0193019B002B44
:10527000F9D12268936813F0805F40F09A80A36DA3
:1052800043F01003A365E36D43F00103E3650120E0
:10529000936813F0040300D00123A16D11F0100FE7
:1052A00040F0BE80002B40F0BB80A36D23F48173DF
:1052B00043F00203A365936813F0010F4FD1A36875
:1052C000217E43EA8133617E43EAC133A57E43EA0E
:1052D0004533216B09B14FF480510B43E1680B4317
:1052E0002169002967DB4FF400110B4394F82C105F
:1052F00043EA410394F8201001295FD0616A21B18B
:1053000001F4E071A56A29430B43D16821F4FE3111
:1053100021F4FF711943D160636803F04043E26CEC
:105320001A4394F83C10012955D021680D69434B6C
:105330002B4013430B616368B3F1404F0FD0B3F1BF
:10534000804F0CD0B3F1004F09D03D49D1F8082768
:1053500022F4701203F470131343C1F80837216864
:10536000636B4A6922F0070213434B612268A16B09
:10537000536923F0700343EA011353612369002B3F
:1053800033D12268936A63F00F03936223685B69E9
:1053900003F00703626B9A4239D0A36D23F0120326
:1053A00043F01003A365E36D43F00103E3650120BF
:1053B0003BE000206CE721F0004196E715B943F48B
:1053C00080339BE7A16D41F02001A165E16D41F0C3
:1053D0000101E16592E7216C0B43616C0B43A16C09
:1053E0000B431A4342F001029FE7B3F5001FCDD1F2
:1053F00021688B6AE369013B9B0003F01C036FF09B
:105400000F0202FA03F3226E13438B62BEE70023FE
:10541000E365A36D23F0030343F00103A36504E0F8
:10542000A36D43F01003A365012003B030BD01203C
:10543000FBE700BF44000020632D3E0502FCFF1F78
:1054400000200140F8B504460D464669082E05D0F7
:105450000368DB6813F0010F1ED10426FDF768FA1C
:10546000074623681A6832421CD1B5F1FF3FF8D0D5
:10547000FDF75EFAC31BAB4201D8002DF1D12368C2
:105480001B683342EDD1A36D43F00403A3650023F1
:1054900084F85430032028E0836D43F020038365B3
:1054A000012022E0A26D42F40072A265DA6812F4D3
:1054B000406F15D1A27E9AB91A6812F0080F0FD06A
:1054C0009A6812F0040F11D15A6822F00C025A6047
:1054D000A36D23F4807323F0010343F00103A3655C
:1054E000207E60B923680C221A60F8BDA36D43F0DA
:1054F0002003A365E36D43F00103E365F0E70020BB
:10550000F3E70368186C704770B483B0002201920F
:10551000046990F85420012A00F003810346012217
:1055200080F854200268906810F0040F0AD09A6D39
:1055300042F020029A650120002283F8542003B033
:1055400070BC70474868022800F09C80B4F1004F9E
:1055500027D0754DAC4224D01C6E00F01F000F25E3
:10556000854024EA05050C68C4F31106002E31D1EC
:10557000C4F3846484402C431C664C68A00801304A
:10558000DD69A84213D80D68906A04F01F040F2645
:10559000A64020EA0600C5F38365A5402843906233
:1055A00005E00C68906AC4F31104204390621C6803
:1055B0000D688A68606920EA052002EA052222F067
:1055C0007C4222F0FF02024362610A68002A09DB82
:1055D0000020B1E794FAA4F414B1B4FA84F4C9E752
:1055E0002024C7E75149D1F8080700F0E071504C7A
:1055F000A24207D04F4CA24226D04F4CA24232D0FA
:10560000002099E710F4000FF4D141F4000147485D
:10561000D0F8082722F0E0721143C0F80817474A73
:10562000126892094649A1FB02129209013202EB6B
:1056300042029200019202E0019A013A0192019A1B
:10564000002AF9D1002077E710F0807FD5D141F012
:1056500080713648D0F8082722F0E0721143C0F874
:105660000817002068E710F4800F58D141F4800239
:105670002E48D0F8081721F0E0710A43C0F8082737
:10568000002059E7B4F1004F02D02748844206D1E8
:105690000C68906AC4F3110420EA040090620A685E
:1056A000002A01DB002047E72049D1F808172048ED
:1056B000824207D01F48824213D01F4882421FD027
:1056C000002039E701F0A07100F1104000F58830AA
:1056D000D0F8082722F0E0721143C0F80817002024
:1056E0002AE701F4400200F1084000F56040D0F8DC
:1056F000081721F0E0710A43C0F8082700201BE7D3
:1057000001F0C07200F10C4000F58030D0F80817AD
:1057100021F0E0710A43C0F8082700200CE70020C0
:105720000AE702200BE700BF0400008000200140D0
:10573000001000B0004000B8002000B44400002079
:10574000632D3E0538B503689A6812F0040F2AD01D
:1057500004469A6812F0020F07D19A6822F00042BC
:1057600022F0170242F010029A60FDF7E1F80546B8
:1057700023689B6813F0040F13D0FDF7D9F8431B7F
:10578000022BF5D923689B6813F0040FF0D0A36DAA
:1057900043F01003A365E36D43F00103E3650120CB
:1057A00002E0002000E0002038BD000030B583B0EA
:1057B0000023019303689A6812F0010F5BD104463D
:1057C00099682E4A114217D19A6822F0004222F0BD
:1057D000170242F001029A60294BD3F8083713F4FC
:1057E000000F19D0274B1B689B09274AA2FB0323F4
:1057F0009B09013301930CE0836D43F01003836533
:10580000C36D43F00103C365012035E0019B013BFB
:105810000193019B002BF9D1637E012B01D1002064
:105820002AE0FDF785F8054623681A6812F0010F93
:105830001FD19A6812F0010F07D19A6822F0004236
:1058400022F0170242F001029A60FDF771F8401B46
:105850000228E9D923681B6813F0010FE4D1A36D76
:1058600043F01003A365E36D43F00103E3650120FA
:1058700002E0002000E0002003B030BD17000080EF
:105880000020014044000020632D3E0503689B6812
:1058900013F0040F28D110B5044690F85430012BB2
:1058A00024D0012380F85430FFF780FFC0B9A36DE6
:1058B00023F4706323F0010343F48073A365002392
:1058C000E36522681C21116084F8543022689368D3
:1058D00023F0004323F0170343F00403936010BD4B
:1058E000002384F85430FAE7022070470220F6E7DC
:1058F00038B504460268936813F0020300D0012310
:10590000916811F0010F39D0002B39D1936803F061
:105910000503012B09D0A36D43F01003A365E36DCC
:1059200043F00103E365012029E0936823F000437D
:1059300023F0170343F002039360236803221A60E5
:10594000FCF7F6FF054623689B6813F0010F13D0A0
:10595000FCF7EEFF401B0228F5D923689B6813F083
:10596000010FF0D0A36D43F01003A365E36D43F086
:105970000103E365012002E0002000E0002038BDC3
:105980000020FCE770B5002856D00446836D43F034
:1059900002038365FFF7D6FE064600283DD0226845
:1059A000536823F4677323F003035360236840F2C2
:1059B0009F321A602268D168204B0B40D360226866
:1059C000536923F00703536123689A6A00259D6297
:1059D0002268136A03F0F02313622268536A03F00B
:1059E000F02353622268D36A03F0F023D362226863
:1059F000136923F040431361114AD2F8083723F0AA
:105A0000FE73C2F808372046FBF7ECFD2566E56516
:105A1000A56584F85450304670BD2046FFF768FFF6
:105A2000064608B90123A3652268936823F0104352
:105A300023F017039360B2E70126ECE700023E83F0
:105A40000020014090F85430012B19D010B50446C5
:105A5000012380F85430FFF775FE18B1002384F855
:105A6000543010BD2046FFF743FF0028F6D1A36D48
:105A700023F4807323F0010343F00103A365EDE7F2
:105A800002207047F0B583B00023019390F85430A2
:105A9000012B00F094800446012380F85430FFF776
:105AA00027FF054623689A6812F0010209D0A36D0A
:105AB00043F01003A365002384F85430284603B054
:105AC000F0BDA16D21F4817141F00201A165DE6894
:105AD00026F4FF4626F07C063604360CD96821F4FD
